:020000020000FC
:1000000000C000E010E020E030E0202E312E422E33
:10001000532E0FE701BB0EE107BB00E008BB052D27
:1000200099D002BB00E108BB10E002E080D000E004
:1000300008BB042D8FD002BB08E008BB10E002E033
:1000400076D000E008BB032D85D002BB04E008BBDE
:1000500010E002E06CD000E008BB022D7BD002BBB8
:1000600002E008BB10E002E062D000E008BB052D12
:1000700071D002BB00E108BB10E003E058D000E003
:1000800008BB042D67D002BB08E008BB10E003E00A
:100090004ED000E008BB032D5DD002BB04E008BBDE
:1000A00010E003E044D000E008BB022D53D002BBB7
:1000B00002E008BB10E003E03AD000E008BB052DE9
:1000C00049D002BB00E108BB10E005E030D000E001
:1000D00008BB042D3FD002BB08E008BB10E005E0E0
:1000E00026D000E008BB032D35D002BB04E008BBDE
:1000F00010E005E01CD000E008BB022D2BD002BBB5
:1001000002E008BB10E005E012D0039409F4139458
:1001100028EE33E0002D112D2FD0002E112E002DB2
:10012000112D3CD0502E412E322E232E76CF8F9380
:100130009F93802F912F05D00197E9F79F918F9181
:1001400008958F939F938BEC97E00197F1F79F9120
:100150008F910895FF93EF931F93F1E0EEE610E087
:10016000E00FF11F04911F91EF91FF9108953F0659
:10017000DB4F666D7D077F6F8F939F9380E090E0EC
:100180000217130722F0021B130B0196F9CF282F39
:10019000392F002F112F9F918F9108956F937F9387
:1001A0008F939F9328EE33E0E7DF922F24E630E031
:1001B000E3DF822F2AE030E0DFDF722F602F062F8F
:1001C000172F282F392F9F918F917F916F9108952D
:00000001FF
