:020000020000FC
:100000000FE107BB0FE701BB03E0202E04E0302E19
:1000100005E0402E06E0502E85E090E0022D17D03E
:1000200002BB02E008BB22D0032D11D002BB04E0CA
:1000300008BB1CD0042D0BD002BB08E008BB16D0B7
:10004000052D05D002BB00E108BB10D0E7CFEF9330
:10005000FF93E2E6F0E0E00FF11D0491FF91EF91D4
:1000600008953F065B4F666D7D077F6F8F939F936B
:1000700005D00197E9F79F918F9108958F939F93F2
:0E00800097E082EC0197F1F79F918F91089520
:00000001FF
