:020000020000FC
:100000000FE107BB0FE701BB00E0202E00E0302E20
:1000100000E0402E00E0502E85E090E0022D29D037
:1000200002BB02E008BB34D0032D23D002BB04E0A6
:1000300008BB2ED0042D1DD002BB08E008BB28D081
:10004000052D17D002BB00E108BB22D021D023949C
:100050000AE0201609F7222433943016E9F63324F7
:1000600043944016C9F6442453945016A9F65524D7
:10007000D3CFEF93FF93E6E8F0E0E00FF11D04919A
:10008000FF91EF9108953F065B4F666D7D077F6F8F
:100090008F939F9305D00197E9F79F918F910895D2
:1000A0008F939F9397E082EC0197F1F79F918F9147
:0200B0000895B1
:00000001FF
