:020000020000FC
:100000000DE415E001D0FCCF0F921F924F935F9348
:100010006F937F938F939F93AF93BF93CF93DF9310
:10002000002F112F28EE33E01FD06A2F042F152F39
:1000300024E630E019D07A2F042F152F2AE030E083
:1000400013D08A2F942F062F172F282F392FDF91A7
:10005000CF91BF91AF919F918F917F916F915F9160
:100060004F911F900F9008950F921F924F935F939F
:10007000AF93BF93CF93DF93CC27DD2702171307EE
:1000800020F0021B130B2196F9CF402F512FAC2FDC
:10009000BD2FDF91CF91BF91AF915F914F911F9095
:0400A0000F90089520
:00000001FF
