:020000020000FC
:100000000FE107BB0FE701BB00E0202E00E0302E20
:1000100000E0402E00E0502E53940AE0501681F488
:10002000552443940AE0401659F4442433940AE0DA
:10003000301631F4332423940AE0201609F42224E4
:1000400083E090E0022D1DD002BB02E008BB28D067
:1000500083E090E0032D15D002BB04E008BB20D064
:1000600083E090E0042D0DD002BB08E008BB18D05F
:1000700083E090E0052D05D002BB00E108BB10D065
:10008000CBCFEF93FF93E6E9F0E0E00FF11D049191
:10009000FF91EF9108953F065B4F666D7D077F6F7F
:1000A0008F939F9305D00197E9F79F918F910895C2
:1000B0008F939F9397E082EC0197F1F79F918F9137
:0200C0000895A1
:00000001FF
