:020000020000FC
:0200000016C028
:0200100046C0E8
:10002C004CC000E007BB00E20BBF01E000BD0CE0E0
:10003C000EBD02E11AE70ABD1BBD00E409BF7894AE
:10004C0022243324442455240FE701BB0EE107BBC3
:10005C0000E008BB052D44D002BB00E108BB37D043
:10006C0000E008BB042D3CD002BB08E008BB2FD03D
:10007C0000E008BB032D34D002BB04E008BB27D042
:10008C0000E008BB022D2CD002BB02E008BB1FD045
:10009C00DFCF0FB70F931F932F933F93F894002D3F
:1000AC00112D789442D0502E412E322E232E3F917A
:1000BC002F911F910F910FBF18950FB70F936F9240
:1000CC00039409F413946F900F910FBF18958F93AD
:1000DC009F938BEC97E00197F1F79F918F91089587
:1000EC00FF93EF931F93F1E0E6E010E0E00FF11FB8
:1000FC0004911F91EF91FF9108953F06DB4F66002D
:10010C006D7D077F6F008F939F9388279927021728
:10011C00130720F0021B130B0196F9CF282F392F50
:10012C00002F112F9F918F9108954F935F936F9391
:10013C007F9328EE33E0E7DF722F24E630E0E3DF35
:10014C00622F2AE030E0DFDF522F402F042F152FD3
:0E015C00262F372F7F916F915F914F9108955D
:00000001FF
